:020000040000FA
:0600000062EF1AF012008D
:020006001200E6
:0600080045EF18F01200A4
:02000E000000F0
:020010000000EE
:0600180007EF18F01200D2
:02001E000800D8
:10002000F73500004801000028000000DC35000022
:10003000610F00001B0000000E000000C101000065
:10004000040000007B350000000F0000610000008C
:100050003335000000010000480000001D1E0000B4
:10006000C6010000010000001C350000AA010000CC
:1000700017000000FC3400007001000020000000A8
:100080003EEC07F053D8E80EE66E030EE66E80EC09
:1000900006F00101AC690101AD6901017B51FDE090
:1000A0007B6BDCEC13F016D9ABEC09F0F6D73AEC2D
:1000B00006F0040EE126DE6ADD6ADECF10F0DDCF49
:1000C00011F069EC06F011501318E8AE02D01334A9
:1000D00004D01250105C135011581DE2020EDB6A5E
:1000E000030EDB6A020EDBCF10F0030EDBCF11F044
:1000F000D890115004E6EE0E105C000E115806E286
:10010000020EDB2A030EEEE3DB2AECD7DF2A010E18
:10011000D4E3DB2AD2D7040EE15C02E2E16AE552C5
:10012000E16E3FEF06F0956A836A1200FCDFBCECDB
:1001300007F0D0EC13F0FFEC17F043EC08F024ECE0
:1001400009F030EC07F0570EE66E120EE66ECDECBD
:1001500016F0E552E552660EE66EB70EE66E12EC4C
:1001600017F0E552E552020EE66EE66A6BEC17F008
:10017000E552E552320EE66EE66A90EC17F0E55273
:10018000E5520FEF12F037EC07F00EE169EC06F0E4
:10019000133404E212500708000E135405E358EC20
:1001A00006F0EF508310836E3FEF06F037EC07F058
:1001B0000EE169EC06F0133404E212500708000E59
:1001C000135405E358EC06F0EF1C8314836E3FEFE5
:1001D00006F03AEC06F034EC06F0EF0408E19AEC95
:1001E00006F051EC07F034EC06F0EF6A08D09AEC18
:1001F00006F056EC07F034EC06F0010EEF6E3FEF20
:1002000006F03EEC07F0DECF10F0DDCF11F0D89015
:10021000115004E60E0E105C000E115815E2DECFF0
:10022000E6FFDDCFE6FF56EC07F030EC07F0DECF5F
:10023000E6FFDDCFE6FF51EC07F030EC07F0DF2AF8
:10024000010EE1E3DB2ADFD7020EE15C02E2E16AA4
:10025000E552E16E3FEF06F0000E24EF06F0000ECF
:1002600028EF06F0020E24EF06F0020E28EF06F04B
:10027000040E24EF06F0040E28EF06F0060E24EF1D
:1002800006F0060E28EF06F0010E24EF06F0010E30
:1002900028EF06F0030E24EF06F0030E28EF06F019
:1002A000050E24EF06F0050E28EF06F0070E24EFEA
:1002B00006F0070E28EF06F03AEC06F0FD0EDBCF55
:1002C00008F0FE0EDBCF09F0010E081801E109501D
:1002D0003FEF06F00101AC51030A01E19BD0010A96
:1002E00001E195D0030A01E190D0010A01E189D032
:1002F000080A24E0010A1EE0030A09E0F50A01E009
:100300008DD00101456B446B01010A0E11D070ECD8
:1003100006F086D847EC06F003E00101090EAC6F49
:100320008FEC06F001E17BD024EC09F00101030E13
:10033000AC6F120070EC06F00BEF05F070EC06F0FD
:100340000101422B0001FE510BE124EC09F0670E84
:10035000E66E190E5BEC07F0590EE66E190E28D00A
:10036000FE050BE124EC09F04A0EE66E190E5BEC7B
:1003700007F0390EE66E190E1BD0020EFE5D0BE182
:1003800024EC09F02B0EE66E190E5BEC07F01F0E45
:10039000E66E190E0DD0030EFE5D0CE124EC09F0A3
:1003A000130EE66E190E5BEC07F0050EE66E190EE5
:1003B00060EC07F047EC06F004E00001FE295EEC7B
:1003C00006F074EC06F008E00001FE5102E143C1C2
:1003D000FEF0FE055EEC06F08FEC06F004E024EC87
:1003E00009F0FEC0ACF101014251106E116AF40E29
:1003F000101806E1010E111812E101010A0EAC6F8E
:10040000120070EC06F061EF03F072DA01D046DA08
:100410005DEF02F070EC06F0F4EF02F0AC69120050
:10042000F40EE66E180E5BEC07F001013851030A7A
:1004300012E0010A0CE0030A06E0010A11E1E30EF2
:10044000E66E180E0BD0D20EE66E180E07D0C10E57
:10045000E66E180E03D0B00EE66E180E60EC07F0D4
:1004600044C110F030EC06F044C1E6FFDFDB0E0EB5
:1004700066EF07F001013851030A18E0010A10E0A5
:10048000030A08E0010A01E01200E6DEF4DEA1EC56
:1004900006F002D0A7EC06F009DFF9DE53EF01F019
:1004A000F3DE01DF06DFDEDEF8DE03D0F0DEF8DEAD
:1004B00000DFE4DED4DE3BEF01F001014529106EE0
:1004C000140E44EC07F005C045F10101055001E1AF
:1004D00044073851030A1DE0010A13E0030A0AE049
:1004E000010A1FE1476B44511DE1010E386F3BC10A
:1004F00044F11200445116E1020E386F3CC144F140
:100500000DD0476B44510EE1030E386F3DC144F1ED
:100510001200445107E1386B3AC144F1010E476FB4
:100520001200386B120001013851030A0EE0010A73
:1005300008E0030A0AE0010A01E0120044513B25E9
:1005400002D044513D25466F120044C146F11200CD
:100550000101010E501901E151510BE0140E505DE3
:10056000000E515907E350C110F0CFDB03E11150E9
:1005700001E1010C000C0101010E521901E153517E
:100580000BE0140E525D000E535907E352C110F0F8
:10059000BCDB03E1115001E1010C000C0101010E73
:1005A000541901E155510BE0140E545D000E5559DC
:1005B00007E354C110F0A9DB03E1115001E1010C84
:1005C000000C0101010E581901E159510BE0140E04
:1005D000585D000E595907E358C110F096DB03E14E
:1005E000115001E1010C000C0101AF055CE1AF6BA2
:1005F0000A0E00018103F350822501013A6F0A0EB1
:1006000000018303F350842501013B6F0A0E0001B2
:100610008503F350862501013C6F0A0E0001870314
:10062000F350882501013D6F24EC09F0AC0EE66E15
:10063000180E5BEC07F03AC110F012DB3AC1E6FF8E
:10064000F5DA040E69EC07F0A80EE66E180EE66EF9
:10065000080EE66EE66AE3DA3BC110F001DB3BC14F
:10066000E6FFE4DA0B0E69EC07F0A40EE66E180E56
:1006700060EC07F03CC110F0F3DA3CC1E6FFD6DADB
:10068000040E66EC07F0A00EE66E180EE66E080E7D
:10069000E3DAC5DA3DC110F0E3DA3DC1E6FFC6DAC0
:1006A0000B0E66EC07F0AEC110F0DADAAEC1E6FF71
:1006B000BDDA0F0E69EC07F0EADA02E00101AC697D
:1006C000120059DB3951050A01E1D0D0050A01E1D8
:1006D00079D0040A5DE0070A3EE0010A20E0030A3F
:1006E00001E0D9D017DB080EE66EE66ABDDB03E059
:1006F0000101020E396FF8DA07E0630E01013E5D79
:1007000002E13E6B01D03E2B0ADB01E1C6D00101C4
:100710003E5103E1630E3E6F12003E071200FADA0B
:10072000080E9ADAA1DB03E00101030E396FDCDA6F
:1007300007E0630E0101405D02E1406B01D0402BF8
:10074000EEDA01E1AAD00101405103E1630E406FEE
:10075000120040071200DEDA0E0EE66EE66A84DB57
:1007600003E00101040E396FBFDA07E0630E0101F7
:100770003F5D02E13F6B01D03F2BD1DA01E18DD02B
:1007800001013F5103E1630E3F6F12003F0712006A
:10079000C1DA0E0E61DA68DB02E00101396BA4DA1E
:1007A00007E0630E0101415D02E1416B01D0412B85
:1007B000B6DA73E00101415103E1630E416F1200AB
:1007C0004107120024EC09F0810EE66E180E73DB6F
:1007D000720EE66E180E74DB0001FE5104E1630E2A
:1007E000E66E180E0CD0FE0504E1540EE66E180EEF
:1007F00006D0020EFE5D04E1440EE66E180E60DBCC
:1008000046DA05E00001FE29106E030E3CDA6CDAD0
:1008100009E00001FE5102E1030EFE6FFE05106EBD
:10082000030E31DA7CDA39E024EC09F00001FE51E4
:100830000BE13EC13AF13FC13BF140C13CF141C146
:100840003DF10101050E10D0FE0508E150DA01016D
:10085000010E396F01010A0EAC6F1200020EFE5D2F
:100860001CE145DA88DA010E396F12005CDE010105
:10087000470508E1010E396F01010A0EAC6F010155
:10088000476B120024EC09F0330EE66E180ED3DA33
:10089000080E66EF07F0010E396F1200F2DCDFDCA4
:1008A000F6DC07DDE2DCF9DC24EC09F0180EE66E7C
:1008B000180E06DB0A0EE66E180EFDDA0001FE29A0
:1008C000106E640EE0D900010550320807E2090EEF
:1008D000E66E180EF5DACFDCE6DC02D0C9DCE0DC2F
:1008E000D6D905E00001FE6B01010A0EAC6F1200C3
:1008F0000101AD51050A01E179D0040A48E0010A7D
:1009000014E0FF0A01E0120071DA0101366BBFD971
:1009100003E00101050EAC6FE7D901E17BD00101D5
:10092000385161E038052FE15ED0B4D904E28FDAA6
:1009300003E167DA01D05ADA640E0101365D09E29B
:10094000375107E104DAAFDCA2DCB0DCA3DC8DDCDC
:100950000DD091DC93DC83DC97DCABDCA4DC9DDC8C
:1009600081DC0101375102E1010E376F010136517F
:10097000640801E2366B8BD901E0F6D9B5D94AE0BB
:100980000101366B376B0101010EAD6F120082D988
:1009900004E25DDA03E135DA01D028DA640E010100
:1009A000365D0BE2375109E17BDC71DC82DC63DC14
:1009B00056DC64DC72DC56DC09D075DC77DC4CDCA0
:1009C000C0D90101375102E1010E376F01013651E3
:1009D000640801E2366B5BD901E0C6D985D91AE01B
:1009E0000101366B376B0101AD6B12009CDD01011B
:1009F000470508E101010A0EAC6F0101AD69010173
:100A0000476B120024EC09F0BE0EE66E170E13DAE7
:100A10000A0E5CDA120001013451040A5BE0070A95
:100A20004EE0010A41E0030A13E0FE0A01E0120071
:100A3000AD0EE66E170E3FDA9C0EE66E170E40DA2C
:100A4000D6D825D952E00101356B366B010E35D071
:100A50008B0EE66E170E2FDA0101362B95D80009A2
:100A600014E0890EE66E170EE66E35C1E6FF010E44
:100A7000E66ED5D801013551EA6AF90FE96E000E2C
:100A8000EA22FDC0EFFF352B366B040E0101355D08
:100A900002E3020E346F640E365D01E3346997D8C9
:100AA000000923E001011FD0366B20D8000903E0C4
:100AB0000101030E02D00101040E346F1200362B27
:100AC000780EE66E170EF7D98AD8640E0101365DEE
:100AD0000CE309D0362B670EE66E170EECD9280E04
:100AE0000101365D02E3346912001200C3D8040E1E
:100AF000E12618D9DF6A050EDF5C3DE213D9010E4D
:100B0000DB6A040EF36E010EDBCFF4FFF350F45CEE
:100B100024E2010EDB50EA6AF90FE96E000EEA22C8
:100B2000EFCF10F0DF50040DF3CF11F0F4CF12F03F
:100B3000200E1126010E1222010EDB501124E96E47
:100B4000000E1220EA6EEF50105C04E0020EDB6A29
:100B5000030EDB6A010EDB2AD4D7D950020FE96EEF
:100B6000DACFEAFF010EEE1804E1ED5002E1DF28D2
:100B700002D0DF2AC0D7106E040EE15C02E2E16A07
:100B8000E552E16E10507BD075D8E652DF6ADF5037
:100B90000F081AE3EA6ADF34FE0BEA36E96E480E04
:100BA000E926010EEA22010EEE180CE1ED500AE1F1
:100BB000DF50EA6A100FE96E010EEA22EFCFFDF076
:100BC000010E03D0DF2AE3D7000EE55258D0010111
:100BD000010E601903E1615101E1010C000C0101FA
:100BE000080EAC6F0001FE6B0101346912000101B7
:100BF000362B3651106E116AD890115004E6C80E8B
:100C0000105C000E11580AE3560EE66E170E53D90B
:100C100001010A0EAC6F01013469366B12002AEC37
:100C20000AF0E552E552E552E552120011C0E6FF26
:100C300012C0E6FF13C0E6FF1200DCEC09F0146EF0
:100C4000060EE15E14501200E66EE66A56EF07F0FB
:100C5000E66EE66A51EF07F0E66E010EE66E1200F0
:100C6000116A126A136A120015D9080EE926010EDC
:100C7000EA221200D9CFE6FFE1CFD9FF1200E552F8
:100C8000E7CFD9FF120000D905C0FEF0120060DCEA
:100C9000000912000101362B640E116E0E6E36C172
:100CA00009F070EC1AF005C010F0320E055C12006D
:100CB000F1D8000EE926010EEA221200106E43C19F
:100CC0000EF0096E70EC1AF005C0FEF00101426BE7
:100CD0001200FD0EDBCF12F0FE0EDBCF13F0120080
:100CE0003AEC02F05DEF02F046DC000912003AC176
:100CF0003EF13BC13FF13CC140F13DC141F1120029
:100D000057EC00F0E552E5521200116A010E101680
:100D1000101812008F0EE66E180EE66E12003EDC02
:100D200000091200010EF36E020EF3CFDBFF030E7B
:100D3000DB6A1200FD0EDBCFE6FFFE0EDBCFE6FF27
:100D4000120041EC01F04AEC01F035EF01F038EC13
:100D500001F02FEC01F041EF01F0DCEC09F0166E30
:100D6000060EE15E165012000101366B376B010171
:100D7000050EAD6F120024EC09F09A0EE66E180E07
:100D80009AD83EC110F06CDF3EC1E6FF4FDF050E82
:100D9000A0D8970EE66E180EE66E090EE66EE66AAD
:100DA0003EDF3FC110F05CDF3FC1E6FF3FDF0B0ECF
:100DB00090D8910EE66E180E83D840C110F050DF27
:100DC00040C1E6FF33DF050E81D8970EE66E180EA0
:100DD000E66E090E41DF23DF41C110F041DF41C162
:100DE000E6FF24DF0B0E72D80101120024EC09F09B
:100DF000FA0EE66E170E5FD8EA0EE66E170E60EF7B
:100E000007F0CC0EE66E170E5BD8640E0101D88099
:100E10003655146E140E156E0E6E14C009F070EC7B
:100E20001AF009C010F01CDF09C0E6FFFFDE0E0E4D
:100E300013DFADEF06F03FD8290EE66E180E40D84E
:100E400046C110F00DDF46C1E6FF16EF06F024ECB8
:100E500009F0DB0EE66E170E2ED801013751120095
:100E6000F40EFADE80EF06F0DADE47EF06F002DF7E
:100E7000FE0EDBCF11F0800E11141200FBDE020E0D
:100E8000E126DE6ADD6A1200116E0E6E10C009F0F6
:100E900070EF1AF0FD0EDBCFE9FFFE0EDBCFEAFFAD
:100EA0001200D6EC00F0E552E5521200C3EC00F05F
:100EB000E552E5521200E66EE66AE66A0FEF06F0CA
:100EC000E66EE66A010EE66E0FEF06F0C5DE1DEF78
:0A0ED00006F0E66EE66A1DEF06F07C
:060EDA0092EC0BF08CDB32
:100EE00011AE02D01268136831DB13E29ADB5ADBD1
:100EF00004E6050E105C000E115806E2020EDB2A15
:100F0000030EF5E3DB2AF3D7DF2A010EE8E3DB2A41
:100F1000E6D7040EE15C02E2E16AE552E16ECCD272
:100F200092EC0BF069DB11AE02D0126813680EDB95
:100F300013E277DB37DB04E6EE0E105C000E11588F
:100F400006E2020EDB2A030EF5E3DB2AF3D7DF2AE3
:100F5000010EE8E3DB2AE6D7040EE15C02E2E16A77
:100F6000E552E16EA9D2E4DBF00B7BDBFE0EDB3851
:100F7000F00B811288DAA0D2D2DB936A190E5FDB04
:100F80000F0E8116F80E81160F0E8116300E69DBDA
:100F9000300E67DB300E65DB818A75DA280EE66E6F
:100FA000E2DFE5520C0EE66EDEDFE552E55284D25A
:100FB000ACDB010EDB6A819459DBE76E010EE7CFF3
:100FC000DBFF819653DBDF6E010EDB50DF12819673
:100FD000010E60DADF50106E020EE15C02E2E16A9F
:100FE000E552E16E105068D29ADBDF6AE1DFDF6E16
:100FF000DFBEFCD7DF50E5525FD29ADB81128186DB
:10100000050E48DA8196050E45DA56D250DA8194FB
:10101000050E40DAA7DA50D24ADA8184050E3ADAB0
:10102000A1DA819449D24AD349D341DAFD0EDBCF0C
:10103000F6FFFE0EDBCFF7FF0800F5500DE0FD0ECA
:10104000DBCFF6FFDB2AFE0EDBCFF7FF01E3DB2A67
:101050000800F5502ADBEAD72FD261DBFD0EDB500A
:101060000F0B106EFE0EDB50010B400DF3501024E1
:10107000DF6E7F0EDF14800FDF6EDFCFE6FFC6DF8F
:10108000E552E55219D2010EE66EC0DFE552E66A7E
:10109000E66A9EEF0BF00BDA050EE126010EF36E09
:1010A000DB6EBFDA040EDB6ADF6ADFCF10F0116A95
:1010B00010BE1168A8DA11501318E8AE02D013342C
:1010C00004D01250105C135011581FE2FD0EDBCFFC
:1010D00010F0FE0EDBCF11F0126A136A11AE02D0CF
:1010E00012681368D950010FE96EDACFEAFF10C019
:1010F0000BF011C00CF012C00DF013C00EF0EADAC4
:10110000A7EC19F0F0DADF2AD0D7010EDBCF10F010
:10111000020EDBCF11F0030EDBCF12F0040EDBCF9B
:1011200013F010C006F011C007F012C008F013C091
:1011300009F0050EE15C02E2E16AE552E16EBCD124
:10114000E4DAFB0EDBCF10F0FC0EDBCF11F0FD0E6E
:10115000DBCF12F0FE0EDBCF13F010501110121087
:10116000131003E1300EA1DA36D0D950FB0F23DA89
:1011700001E627DA05E22D0E98DAD950FB0FD9D90E
:10118000DE52070EDD6E46DAE8AE02D0103403D030
:10119000E750D88010541FE226DA14BE156880D9B3
:1011A00045DA6DDA17DA0BE0010EDF6EDB04186E3C
:1011B000196A18BE196892D962DAAED903D0DF5025
:1011C00002E0300E72DA0FDA14BE156869D9D95010
:1011D000FB0F7BD9D8D7020EE15C02E2E16AE5524F
:1011E000E16E6AD164D9D6D9D950F90F62DAEECF5F
:1011F000E6FFEECFE6FFEECFE6FFEFCFE6FFA0DFA4
:10120000E552E552E552E55257D151D9C3D9FB0E0B
:10121000DBCFE6FFFC0EDBCFE6FF07DFE552E55252
:101220004BD145D97CCF10F07DCF11F0040ED89072
:1012300010361136E806FBE1A1D9FE0EDBCFEFFF39
:101240007E2B000E7F2338D16ADADF6ADFCF10F001
:10125000100EE76E1018E8AE02D0E73402D0E75067
:10126000105C18E2DFCFE9FFEA6AE9BEEA68410EE6
:10127000E9260F0EEA22200EEF6EDFCFE9FFEA6AC1
:10128000E9BEEA68510EE9260F0EEA22200EEF6E43
:10129000DF2ADCD7E55210D142DA0F014051030AB0
:1012A00029E0010A1CE0030A0CE0010A32E14ADAF3
:1012B000080EDF5C03E2DF50C8D9FAD70F01010E38
:1012C00017D0080EE66EE66A18D9080EDF5C04E255
:1012D000080EDF24BAD9F9D70F01020E09D01ADAA5
:1012E000080EDF5C03E2DF50B6D9FAD70F01030E18
:1012F000406F10D0080EE66E010EE66EFED8080EA6
:10130000DF5C04E2080EDF24A6D9F9D70F01406B99
:1013100001D0406BE552D0D002DA0F014051010AF2
:101320000DE0010A15E10EDA100EDF5C03E2DF507A
:101330008CD9FAD70F01010E406F0BD0EBD9100EEC
:10134000DF5C03E2DF5087D9FAD70F01406B01D091
:10135000406BE552B1D0E3D9F5D9100EDF5C03E262
:10136000DF5073D9FAD7D6D9100EDF5C03E2DF5015
:1013700072D9FAD7E552A0D09AD8C2D8FC0EDB5069
:101380000A0802E1610E05D0FC0EDB500D0805E1F4
:10139000640EF36EFC0EF3CFDBFF7CCF10F07DCF3D
:1013A00011F0040ED89010361136E806FBE1E6D8AD
:1013B000FC0EDBCFEFFF80D0A8D9A2D8F90EDBCF8F
:1013C00010F0FA0EDBCF11F01ED9105011101210D0
:1013D000131003E1300E0CD936D0D950F90FEBD8E9
:1013E00001E6EFD805E22D0E03D9D950F90FA1D8A7
:1013F000DE52070EDD6E0ED9E8AE02D0103403D0F7
:10140000E750D88010541FE2EED814BE156848D8B3
:101410000DD940D9DFD80BE0010EDF6EDB04186E6A
:10142000196A18BE19685AD835D976D803D0DF5052
:1014300002E0300EDDD8D7D814BE156831D8D950A7
:10144000F90F43D8D8D7020EE15C02E2E16AE55217
:10145000E16E32D02CD854D8FB0EDBCFF6FFFC0E59
:10146000DBCFF7FF0800F5500DE0FB0EDBCFF6FFFA
:10147000DB2AFC0EDBCFF7FF01E3DB2A0800F55087
:10148000B7D8EAD719D08186010ED9D88196010E36
:101490001FEF0BF0E66EE66AE66AE66A1EDD56D1DD
:1014A00014C0E6FF15C0E6FF10D97CEF0BF0D9CFD2
:1014B000E6FFE1CFD9FF1200E552E7CFD9FF1200D6
:1014C000EA22EF50F2D8DF2A1200F3D8AFD802D9BF
:1014D000DFEC19F008D9010EDB06120018C0E6FF98
:1014E00019C0E6FFF2D806C014F007C015F008C016
:1014F00016F009C017F016EF0BF020D9DF6A1200C2
:10150000FE0EDB50010B0F017C6F7D6BFD0EDB507F
:101510000F0B7E6F7F6B1200DBCF09F0DFEC19F051
:10152000EBD8300E1026000E11221222132210507A
:101530001200BFD8000EEE6CEF1EEE22EF1EEE2260
:10154000EF1EEF22ED52ED52ED521200D950FB0F7B
:10155000B0D8EE50105CEE501158EE501258EE50CC
:1015600013581200FE0EDBCFE6FF47DDE552FE0EFC
:10157000DB38F00BE66E41DDE5521200410E10261D
:101580000F0E112210500F017E25E96E11507F21A0
:10159000EA6E1200FD0EDBCFE6FFFE0EDBCFE6FFAC
:1015A0009EEF0BF0020EDBCF10F0030EDBCF11F03D
:1015B000D890115012007DD8D890030EEB50000A3D
:1015C0001200000EEE5C000EEE58000EEE58000EFB
:1015D000EE581200DBCF09F0DFEC19F006500710CF
:1015E000081009101200010EDB04146E156A1200B7
:1015F000E66E17DEE5521200DECF10F0DDCF11F0FF
:10160000126A136A1200FB0EDBCF12F0FC0EDBCF66
:1016100013F01200010EDBCF10F0000EE76E101871
:101620001200020EDB6A030EDB6A120006C00BF02A
:1016300007C00CF008C00DF009C00EF01200E66EF5
:10164000E66AE66AE66A6CDC81D0EA6A410FE96E16
:101650000F0E60EF0AF0EA6A510FE96E0F0E60EFAD
:101660000AF0811210DF0F0E811612000F0E12DF2A
:101670000F0E811281860EDF0F0E81141200FB0EF9
:10168000DBCF06F0FC0EDBCF07F0FD0EDBCF08F062
:10169000FE0E1200F90EDBCF06F0FA0EDBCF07F0DC
:1016A000FB0EDBCF08F0FC0E1200E66EBDDCE5524F
:1016B0001200E96EFF0EDA20EA6E1200F8DEFE0E6E
:1016C000DBCFE6FFA9DCE552F7D60A0EE66EE66A46
:1016D000E2DC3CD0EECF06F0EECF07F0EECF08F024
:1016E000EFCF09F0120005C0EDFF04C0EDFF03C00D
:1016F000EDFF02C0EFFF120006C010F007C011F0AE
:1017000008C012F009C013F01200D1DE020EE1266B
:10171000DF6A1200E66A010EE66E7DEF0AF0C7DEB0
:10172000E6521200C4DE040EE126DE6ADD6A120013
:10173000BEDE0F0E8116FE0EDB5012008EDCE5526F
:10174000E5521200E66AE66A7DEF0AF0E552E552DC
:06175000E552E552120013
:0A17560054524146464943204C45D9
:101760004420202020200050415353574F52442002
:1017700057524F4E472020004F50454E494E47206C
:10178000444F4F5220202020002A00454E544552FD
:101790002050415353574F524420200020202020F6
:1017A00020202020202020202020202000505245D2
:1017B0005353203420464F5220504153530020436E
:1017C00048414E4745204D4F444520004348414E37
:1017D0004745204C454420494E3A004D414E554125
:1017E0004C204D4F44453A4F4E004348414E4745EB
:1017F000204D414E55414C3A3500545241464649E0
:1018000043204D4F44453A340000534C4F57204D30
:101810004F44453A204F4E00474F204F55543A20F1
:1018200050524553532034200020202020494E3A66
:1018300020200020555044415445205345545449DC
:101840004E47200059455320204E4F2020524553EB
:1018500045543C0059455320204E4F3C205245539F
:101860004554005945533C204E4F20205245534586
:10187000540059455320204E4F2020524553455483
:10188000004B4545502053455454494E473F003C7A
:1018900000503220473A00593A00503120473A0070
:1018A00059323A0047323A0059313A0047313A004A
:1018B0005048415345325F59454C4C4F573A2020D0
:1018C000005048415345325F475245454E3A20202B
:1018D00020005048415345315F59454C4C4F573AD1
:1018E0002020005048415345315F475245454E3A0C
:1018F0002020200054524146464943204C49474845
:10190000543A4F4E00343A55415254204D4F4445BD
:10191000203C00333A534C4F57204D4F4445003440
:101920003A55415254204D4F444500333A534C4FA1
:1019300057204D4F4445203C00323A4D414E5541D1
:101940004C204D4F444520203C00313A53455454DF
:10195000494E472054494D4500323A4D414E55417C
:101960004C204D4F444500313A53455454494E475D
:101970002054494D45203C002020202020202020BC
:101980002020202020202020004368616E676564AD
:1019900020746F2074726166666963206D6F646580
:1019A000210D0A000D0A4368616E67656420746F3B
:1019B0002074726166666963206D6F6465210D0A2B
:1019C000000D0A6368616E67656420746F2074722D
:1019D0006166666963206D6F6465210D0A00636846
:1019E000616E6765206C656420636F6D706C6574F3
:1019F00065210D0A00536B69707065642064617421
:101A000061210D0A0055706461746520737563630C
:101A1000657373210D0A004E6F202D3E20507265B4
:101A2000737320620D0A00596573202D3E20507299
:101A300065737320610D0A005570646174652061DF
:101A40006C6C2073657474696E673A0D0A005934C2
:101A50003D005570646174652059343A00526575D3
:101A60007064617465205933206F722070726573E1
:101A700073206120746F20636F756E74696E756575
:101A80000D0A0028593429730D0A00732D2D506852
:101A9000617365322D59656C6C6F773A0059333D2F
:101AA000005570646174652059333A00732D2D50D0
:101AB00068617365322D59656C6C6F773A285933BC
:101AC0002928593429730D0A0059323D0055706494
:101AD0006174652059323A005265757064617465AD
:101AE000205931206F7220707265737320612074E9
:101AF0006F20636F756E74696E75650D0A002859E5
:101B00003229732D2D5068617365322D59656C6CC7
:101B10006F773A2859332928593429730D0A005010
:101B200068617365322D477265656E3A0059313DC3
:101B3000005570646174652059313A0052657570C2
:101B400064617465205834206F72207072657373FD
:101B5000206120746F20636F756E74696E75650DFA
:101B60000A005068617365322D477265656E3A28C8
:101B7000593129285932292D2D5068617365322D2C
:101B800059656C6C6F773A28593329285934290DD7
:101B90000A00730D0A0058343D0055706461746585
:101BA0002058343A0052657570646174652058336A
:101BB000206F72207072657373206120746F2063D0
:101BC0006F756E74696E75650D0A00285834297337
:101BD0000D0A00732D2D5068617365312D59656CA8
:101BE0006C6F773A0058333D00557064617465201E
:101BF00058333A005265757064617465205832201C
:101C00006F72207072657373206120746F20636F30
:101C1000756E74696E75650D0A00732D2D506861BF
:101C20007365312D59656C6C6F773A2858332928C4
:101C3000583429730D0A0058323D005570646174A0
:101C4000652058323A00203D3E2057726F6E672063
:101C500076616C7565200D0A00526575706461745B
:101C600065205831206F7220707265737320612077
:101C7000746F20636F756E74696E75650D0A002848
:101C8000583229732D2D5068617365312D59656C5B
:101C90006C6F773A2858332928583429730D0A0075
:101CA0005068617365312D477265656E3A00583131
:101CB0003D002D534C4F57204D4F44453A204F4E39
:101CC0002D0D0A007072657373206220746F20639B
:101CD0006F6D65206261636B20746F207472616642
:101CE000666963206D6F6465210D0A00707265730B
:101CF00073206120746F206368616E6765206C6576
:101D000064210D0A002D4D414E55414C204D4F444C
:101D1000453A204F4E2D0D0A0055706461746520C0
:101D200058313A005068617365322D477265656EAF
:101D30003A2859312928593229732D2D5068617359
:101D400065322D59656C6C6F773A285933292859BB
:101D50003429730D0A005068617365312D4772652F
:101D6000656E3A2858312928583229732D2D50682C
:101D7000617365312D59656C6C6F773A285833293A
:101D800028583429730D0A002D53455454494E47A1
:101D9000204D4F44453A204F4E2D0D0A005072659C
:101DA00073732063206368616E676520746F2073AE
:101DB0006C6F7720646F776E206D6F64650D0A001D
:101DC00050726573732062206368616E676520746A
:101DD0006F206D616E75616C206D6F64650D0A001A
:101DE00050726573732061206368616E676520744B
:101DF0006F2073657474696E672074696D65206DFA
:101E00006F64650D0A002D2D2D2D2D2D2D2D2D2DC1
:0D1E10002D2D2D2D2D2D2D0D0A000D0A005C
:011E1D0000C4
:021E1E0024ECB2
:101E200009F0AECFEDF0EDC0E6FFD7DA0101AE511B
:101E3000100A01E10ED21F0A01E1F9D1010A01E104
:101E4000E7D1020A01E1CED1070A01E190D1010AEE
:101E500001E160D1030A01E130D1010A01E1FED0C4
:101E60000F0A01E1D2D0010A01E1A3D0030A01E186
:101E700073D0010A42E0050A01E0F7D1BF5110E139
:101E800068DAE00EE66E1D0E1DDAC00EE66E1D0E5F
:101E900019DA9D0EE66E1D0E15DA0101010EBF6FF7
:101EA00048DA11E19EDA880EE66E1D0E0BDA560E48
:101EB000E66E1D0E6BDAAEDA190EE66E1D0E02DA54
:101EC0000101040ED0D1620EED5D09E18ADA050E42
:101ED000E66E1D0E4CDA0101010EAC6FADD1630E42
:101EE000ED5D01E0C3D17DDAB20EE66E1C0E81DA43
:101EF0000101020EAC6F100EB6D1AE0EE66E1C0ED6
:101F0000E7D904E004DA1CE3FDD91AE300DA13E3AD
:101F1000F9D911E359DAEDC0E5F0F9D9816F48DA62
:101F2000E5C0E6FF5ADA7F0EE66E1C0E2FDA590E78
:101F3000E66E1C0E37D116DA190EE66E1D0E66D14E
:101F40000101C00501E092D1F4D901E08FD141DA5D
:101F50003B0EE66E1C0E41D1370EE66E1C0EB8D954
:101F600004E0D5D91AE3CED918E3D1D911E3CAD9FF
:101F70000FE32ADAEDC0E6F0CAD9826F19DAB5D9D3
:101F80001A0EE66E1C0E9ED9240EE66E1D0EACD007
:101F9000E9D93B0EE66E1C0E39D10101C00501E006
:101FA00065D1C7D901E062D114DAE90EE66E1B0EE5
:101FB00014D1E50EE66E1B0E8BD904E0A8D919E307
:101FC000A1D917E3A4D910E39DD90EE3FDD9EDC043
:101FD000E7F09DD9836FB5D9CB0EE66E1B0ED6D92F
:101FE000A50EE66E1B0EDED0BDD9E90EE66E1B0E09
:101FF0000DD10101C00501E039D19BD901E036D1F5
:10200000E8D99A0EE66E1B0EE8D0960EE66E1B0E11
:102010005FD904E07CD916E375D914E378D90DE3D0
:1020200071D90BE3D1D9EDC0E8F071D9846F89D9AA
:10203000E6D9620EE66E1B0EB1D094D99A0EE66E0A
:102040001B0EE4D00101C00501E010D172D901E0FE
:102050000DD1BFD9310EE66E1B0EBFD02D0EE66E30
:102060001B0E36D904E053D91CE34CD91AE34FD9DF
:1020700013E348D911E3A8D9EDC0E9F048D9856F39
:10208000B5D9E9C0E6FFA9D9FE0EE66E1A0E1AD937
:10209000D80EE66E1A0E86D065D9310EE66E1B0E8E
:1020A000B5D00101C00501E0E1D043D901E0DED0A7
:1020B00090D9CD0EE66E1A0E90D0C90EE66E1A0EAD
:1020C00007D904E024D91AE31DD918E320D911E374
:1020D00019D90FE379D9EDC0EAF019D9866F86D9FD
:1020E0001FD9AC0EE66E1A0EEDD8F40EE66E1B0E7E
:1020F00059D038D9CD0EE66E1A0E88D00101C00530
:1021000001E0B4D016D901E0B1D063D9A10EE66EDA
:102110001A0E63D09D0EE66E1A0EDAD804E0F7D8D8
:102120001AE3F0D818E3F3D811E3ECD80FE34CD955
:10213000EDC0EBF0ECD8876F59D91FD9830EE66E4E
:102140001A0EC0D85D0EE66E1A0E2CD00BD9A10E59
:10215000E66E1A0E5BD00101C00501E087D0E9D818
:1021600001E084D036D9520EE66E1A0E36D04E0EED
:10217000E66E1A0EADD804E0CAD81EE3C3D81CE33D
:10218000C6D815E3BFD813E31FD9EDC0ECF0BFD814
:10219000886F2CD9F2D8ECC0E6FFBDD893D83C0E9E
:1021A000E66E1B0E8FD80101010EC06F1200DAD847
:1021B000520EE66E1A0E2AD00101C00557E1B9D8B9
:1021C00055E107D9380EE66E1A0E7CD8270EE66E5A
:1021D0001A0E78D8170EE66E1A0E74D80101AE2BBF
:1021E000C06B1200A6D809E10101010EAF6FAE6FFE
:1021F000EBD8050EE66E1A0E09D0620EED5D36E1E3
:102200000101010EAE6FF50EE66E190E62EF11F0D0
:1022100090D806E1D9D8F8D8010EAD6F0F0E23D0B3
:10222000620EED5D23E1C10EE66E190E0DD081D870
:1022300005E1CAD8E9D8AD6B0E0E15D0620EED5D82
:1022400015E1A40EE66E190E3DD80101050EAC6F26
:1022500009D0620E0001ED5D04E1890EE66E190EF3
:1022600031D80101010EAE6F1200AE6B12001200E8
:102270000101AF0526E1780EE66E190E8DD800013A
:10228000806B0101B3510001805D13E28051EA6A65
:10229000810FE96E000EEA22EFCF10F04ED810C089
:1022A000E6FF29D8030E8003F35016D80001802BD7
:1022B000E8D7AEC110F041D8AEC1E6FF1CD80F0E72
:1022C0000BD81200E66E6BEC12F0E552E5521200EC
:1022D00063D80101C0511200E66EE66ADCEC09F039
:1022E000146E060EE15E14501200E5C0E6FF75D8CC
:1022F000E6C0E6FF5BD011C0E6FF12C0E6FF13C0E8
:10230000E6FF1200390E106EED51105C1200300E17
:102310000001ED5D120061D8920EE66E1B0E1200F8
:10232000E9C0E6FF5AD8EAC0E6FF40D0E7C0E6FFC2
:102330003DD0610E0001ED5D1200116A126A136A50
:10234000120036D8D2DFD30EE66E1B0EBBDF96EF3F
:1023500011F03AD80AEF12F052D81F0EE66E1B0E9B
:1023600062EF11F0460EE66E1C0E62EF11F0AADF6E
:10237000EC0EE66E1C0EF9EF11F0D2DF8B0EE66E5E
:102380001A0EA0DFEBC0E6FFEDEF11F09BDF240E8D
:10239000E66E1D0E62EF11F0E66EE66AE66A2AEC62
:1023A0000AF0E552E552E552E5521200EDEF11F068
:1023B000106EC3DFE66E9FDF040E8EDF2BD8A00EFB
:1023C000E66E1C0E62EF11F01A0EE66E1E0E62EF44
:1023D00011F00101B12BA9EF11F057EC12F0E55209
:1023E00012000101B16BBF6BA9EF11F0AADFACEFD6
:1023F00011F068DFC40EE66E1C0E62EF11F0E8C04B
:10240000E6FF89DF62EF11F0DE0EE66E190EAFDF38
:0E24100001011200060EE66E1E0E62EF11F0C4
:02241E00B06AA2
:10242000810EAF6EAC8AAC94B886AC98AB8EAB889C
:102430009E9A9D8A9F9A949C948E120058D9040E5D
:10244000E126DE6ADD6ADECF10F0DDCF11F086D93D
:1024500011501318E8AE02D0133404D01250105C9F
:10246000135011581DE2020EDB6A030EDB6A020EE6
:10247000DBCF10F0030EDBCF11F0D890115004E643
:10248000EE0E105C000E115806E2020EDB2A030E5F
:10249000EEE3DB2AECD7DF2A010ED5E3DB2AD3D724
:1024A000040EE15C02E2E16AE552E16E25D11FD93A
:1024B0009EA8FED7FE0EDB50AD6E9E981DD117D99B
:1024C00045D908E043D923D9FD0EDB2AFE0EF8E3F7
:1024D000DB2AF6D711D10BD91ED90CE01CD917D99C
:1024E000FD0EDBCFF6FFDB2AFE0EDBCFF7FFF4E3BA
:1024F000DB2AF2D701D10FEF0FF0F9D8050EE12654
:10250000010EF36EDB6E020EDB6A030EDB6A040E55
:10251000DB6ADF6ADFCF10F0116A10BE1168FB0EB4
:10252000DBCF12F0FC0EDBCF13F011501318E8AE26
:1025300002D0133404D01250105C135011581FE213
:10254000FD0EDBCF10F0FE0EDBCF11F0126A136A26
:1025500011AE02D012681368D950010FE96EDACFBC
:10256000EAFF10C00BF011C00CF012C00DF013C048
:102570000EF0DAD8A7EC19F0E0D8DF2ACBD7010E9D
:10258000DBCF10F0020EDBCF11F0030EDBCF12F029
:10259000040EDBCF13F010C006F011C007F012C01C
:1025A00008F013C009F0050EE15C02E2E16AE552B1
:1025B000E16EA2D09CD8020EE126DF6AFB0EDBCFD3
:1025C00010F0FC0EDBCF11F0C9D810501110121012
:1025D000131003E1300E9BD86DD092D8D890030E23
:1025E000EB50000A08E6000EEE5C000EEE58000EFE
:1025F000EE58000EEE580EE22D0E89D881D8000E4E
:10260000EE6CEF1EEE22EF1EEE22EF1EEF22ED52D9
:10261000ED52ED52DE520A0EDD6E010EDBCF10F0F0
:10262000000EE76E1018E8AE02D0103403D0E75069
:10263000D88010543FE2010EDB04146E156A14BEFC
:1026400015684ED83ED806500710081009101EE035
:10265000010EDF6EDB04186E196A18BE196818C007
:10266000E6FF19C0E6FF81D806C014F007C015F0D8
:1026700008C016F009C017F024D880D8300E1026F4
:10268000000E112212221322105003D0DF5002E05C
:10269000300E3DD8010EDB04146E156A14BE1568A9
:1026A0001FD82ED874D840D8DFEC19F046D8010EC8
:1026B000DB06B3D7020EE15C02E2E16AE552E16EAD
:1026C0001BD065D8FB0EDBCF06F0FC0EDBCF07F08E
:1026D000FD0EDBCF08F0FE0EDBCF09F0DFEF19F0C7
:1026E00014C0E6FF15C0E6FF40D8BEEF13F0D9CF07
:1026F000E6FFE1CFD9FF1200E552E7CFD9FF120084
:10270000D950FB0FE96EFF0EDA20EA6E1200E66E7A
:10271000CEDEE5521200FD0EDBCFF6FFFE0EDBCF64
:10272000F7FF0800F5501200EECF06F0EECF07F0ED
:10273000EECF08F0EFCF09F0120005C0EDFF04C0A6
:10274000EDFF03C0EDFF02C0EFFF1200FD0EDBCF77
:10275000E9FFFE0EDBCFEAFFEF501200FD0EDBCFEC
:1027600012F0FE0EDBCF13F012000A0EE66EE66AE0
:10277000C4DEE552E552E552E552120006C010F003
:1027800007C011F008C012F009C013F0120006C013
:102790000BF007C00CF008C00DF009C00EF01200DD
:1027A0000F0E946E82681200070E9410946EDF0E66
:1027B0009414946E826812003ED968D901E661D9FA
:1027C00015E24BD9826E58D93FD901E65AD909E2B0
:1027D00025D902E16CD901D083D965D9F5E3DB2A8B
:1027E000F3D7DF2A010EE9E3DB2AE7D7040EE15C29
:1027F00002E2E16AE5523BD11ED948D904E6020E55
:10280000105C000E115813E26FD91ED901E639D9B8
:1028100009E204D902E14BD901D062D944D9F5E3E8
:10282000DB2AF3D7DF2A010EE8E3DB2AE6D7040E22
:10283000E15C02E2E16AE5521AD1FDD81DD901013D
:10284000681D8214826E18D9FFD801E61AD909E2F0
:10285000E5D802E12CD901D043D925D9F5E3DB2A0B
:10286000F3D7040EE15C02E2E16AE55200D1E3D85D
:1028700003D9010EDE6EDD6A37D9E6D804E6030E11
:10288000105C000E115809E2C9D802E110D901D03C
:1028900027D909D9F2E3DB2AF0D7040EE15C02E282
:1028A000E16AE552E4D0C7D824D9FD0EDBCF12F09F
:1028B000FE0EDBCF13F011501318E8AE02D0133424
:1028C00004D01250105C1350115811E2D5D8BCD866
:1028D00004E6EE0E105C000E115804E2E4D8F7E3B3
:1028E000DB2AF5D7DF2A010EDFE3DB2ADDD7040E72
:1028F000E15C02E2E16AE552BAD09DD8C7D801E6B0
:10290000C0D820E2AAD8826EB7D89ED801E6B9D83E
:102910000BE2E6D883D804E171D8010EEE6EED6AC1
:10292000C2D8F3E3DB2AF1D78250816EE80EE66E5F
:10293000030EE66EB8DFE552E552DF2A010EDEE354
:10294000DB2ADCD7040EE15C02E2E16AE5528FD0BB
:10295000D9CFE6FF040EE12684B005D00101482B53
:10296000000E492303D00101486B496B84B204D0A7
:102970004A2B000E4B2302D04A6B4B6B84B404D01D
:102980004C2B000E4D2302D04C6B4D6B82B004D00B
:102990004E2B000E4F2302D04E6B4F6B82B204D0F1
:1029A000502B000E512302D0506B516B82B404D0D7
:1029B000522B000E532302D0526B536B82BA04D0B9
:1029C000542B000E552302D0546B556B81B004D0AC
:1029D000562B000E572302D0566B576B040EE15C4A
:1029E00002E2E16AE55243D0070E9610966E270E7A
:1029F0009410946E010E9310936E12007AD8D890B2
:102A000010361136D89010361136020EDB501024D5
:102A1000E96E030EDB5011207EEF15F0020EDBCFC6
:102A2000E9FF030EDBCFEAFF6C0EE926010EEA2276
:102A3000EF5082141200D9CFE6FFE1CFD9FF040E88
:102A4000E126DE6ADD6A1200020EDBCF10F0030E13
:102A5000DBCF11F0D89011501200DECFE9FFDDCFAF
:102A6000EAFF680EE926010EEA22EF1C1200E16E71
:102A7000E552E7CFD9FF1200020EDB6A030EDB6AD4
:102A80001200040E105C000E1158120032D8D890BB
:102A900011501200D89014361536120012C0EEFFF5
:102AA00013C0EDFF1200020EDB2A030E1200DECF70
:102AB00014F0DDCF15F0EEDFEDDF020EDB50142455
:102AC000E96E030EDB50152019D8EECF12F0EFCFD0
:102AD00013F0010E1226000E132290DF4EEF15F0B8
:102AE0008DDFEE6AED6A1200B8DF8214826E3CEF71
:102AF00015F0DECF10F0DDCF11F01200EA6ED890A5
:0E2B0000E936EA36480EE926010EEA221200F6
:022B0E000AD9E2
:102B1000020EE126FE0EDB500F0BDF6EFE0EDB38E1
:102B20000F0B0A0D14D902E2E16AE552E16E105072
:102B3000FED0F8D8020EE12613D90550DF6E10D969
:102B40000950100D04D902E2E16AE552E16E10501D
:102B5000EED094869488C79EC79CC690C692C694B1
:102B6000C686310EC86EC68A12000ED9D00FC96E45
:102B70009EA6FED7DCD008D9A00FC96E9EA6FED7B0
:102B8000D6D09E96C5809EA6FED712009E96C5847E
:102B90009EA6FED71200F8D8C96E9EA6FED7C7D053
:102BA0009E96C5869EA6FED7C95012009E96C59ACF
:102BB000C5889EA6FED712009E96C58AC5889EA689
:102BC000FED71200AFD8D4D8010EC56FE85004E08C
:102BD000C550400BFAE0F8D7FE0EA0D8010EC56F25
:102BE000E85004E0C550400BFAE0F8D7FD0EDBCF0B
:102BF000E6FF9FDFE552E66ECCD8010EC56FE850C8
:102C000004E0C550400BFAE0F8D7C0DF90D08AD876
:102C1000B5D8010EC56FE85004E0C550400BFAE08E
:102C2000F8D7FE0E7BD8010EC56FE85004E0C55002
:102C3000400BFAE0F8D77FD8010EC56FE85004E0EA
:102C4000C550400BFAE0F8D7FC0E68D8010EC56FEE
:102C5000E85004E0C550400BFAE0F8D797DF67D0A2
:102C600061D8E65285D8010EC56FE85004E0C55022
:102C7000400BFAE0F8D7FE0E51D8010EC56FE850B0
:102C800004E0C550400BFAE0F8D77BDF010EE66E9A
:102C90006CDFE5520101010EC56FE85004E0C5503C
:102CA000400BFAE0F8D77CDFDF6EDFCFE6FF2FDFE7
:102CB000E552DF6EDF50E5523AD034D8E6525ED8A6
:102CC000010EC56FE85004E0C550400BFAE0F8D79C
:102CD000FE0E24D8010EC56FE85004E0C550400B2D
:102CE000FAE0F8D728D8010EC56FE85004E0C550C7
:102CF000400BFAE0F8D745DF010EE66E3CDFE55207
:102D00000101010EC56FE85004E0C550400BFAE028
:102D1000F8D746DFDF6EDF50E55209D0DBCFE6FFA4
:102D2000C9EF16F0D9CFE6FFE1CFD9FF1200E55287
:102D3000E7CFD9FF1200FD0EDBCF10F0FE0EDBCF88
:102D400011F00001116A1050E66EC9EF16F0010E85
:102D5000F3CFDBFFDB50DF24106E020EE15C1200CC
:102D60000A0E106E0E6EFE0EDBCF09F070EF1AF039
:102D700008DFE66AFADEE5520101120002DFE66AC8
:102D8000FADEE55201011200CDDF9E96FE0EDB5009
:0A2D9000120001DFE55201011200FC
:062D9A00F1D8D59EFD0EEC
:102DA000DBCF70F1FE0EDBCF71F1D59C05D9D59A42
:102DB000D586F28AF294F184D58EE6D0D59E1200A3
:102DC000FBD8D58E1200DBD8CD90FD0EDBCF72F193
:102DD000FE0EDBCF73F1F7D89D809E909F90CD8E35
:102DE000CD8CCD98CD9ACD96CD92CD80CDD0EBD84F
:102DF000CD801200CD901200C2D8CA94CC6AFE0ECB
:102E0000DB500101746F756BCB6E9D829E929F9219
:102E1000CA90CA92CA84B8D074C1CBFFCA841200C7
:102E2000CA941200ACD8B190FD0EDBCF76F1FE0E45
:102E3000DBCF77F1CFD80750B36ECCD8B5D8B26E10
:102E4000A082A192A292B18EB198B19AB192B180B2
:102E50009BD0C0D80350B26EBDD89ED8B36EB1809F
:102E60001200B19012000101802B000E81238851C5
:102E7000805D8951815904E3806B816B010E786F0D
:102E800012000101822B000E83238A51825D8B5137
:102E9000835904E3826B836B010E796F1200010189
:102EA000842B000E85238C51845D8D51855904E35C
:102EB000846B856B010E7A6F12000101862B000E68
:102EC00087238E51865D8F51875904E3866B876B0C
:102ED000010E7B6F120053D8FD0EDBCF88F1FE0E82
:102EE000DBCF89F10101806B816B786B4DD047D8C6
:102EF000FD0EDBCF8AF1FE0EDBCF8BF1050E0D6EE2
:102F00000E6A8AC108F08BC109F0BDEC18F008C048
:102F10008AF109C08BF10101826B836B796B34D02C
:102F20002ED8FD0EDBCF8EF1FE0EDBCF8FF10A0E19
:102F30000D6E0E6A8EC108F08FC109F0BDEC18F05D
:102F400008C08EF109C08FF10101866B876B7B6B26
:102F50001BD0186A1650135C106E17501458116E5F
:102F600018501558126E0C6A010E0D6E0E6A10C0C4
:102F700007F011C008F012C009F0E3EF18F0D9CF44
:102F8000E6FFE1CFD9FF1200E552E7CFD9FF1200EB
:102F900013681468156A120007C010F008C011F019
:102FA00009C012F00750120003C010F004C011F065
:102FB00005C012F00350120014D80350D66E11D879
:102FC000EBDFD76E120014D80750CF6E11D8ECDFAC
:102FD000CE6E1200DDDF76C116F077C117F0A9EFD3
:102FE00017F0D6DF70C116F071C117F0A9EF17F016
:0E2FF000CFDF72C116F073C117F0A9EF17F012
:022FFE00F28E51
:10300000D08EF28C1200F19CF292F2881200D8CF8E
:10301000E4FFE0CFE4FFE46E6CD800EE00F0100EA9
:10302000E80403E3EECFE4FFFBD700EE10F00A0E56
:10303000E80403E3EECFE4FFFBD7E652F2B481D815
:103040009EB086D89EB28BD8A1B290D8F2B2F2923E
:103050009EAA03D09E9A7BEC12F0E55200EE19F086
:103060000A0EE80403E3E5CFEDFFFBD700EE0FF017
:10307000100EE80403E3E5CFEDFFFBD74FD8E55092
:10308000E5CFE0FFE5CFD8FF100033D800EE00F029
:10309000100EE80403E3EECFE4FFFBD700EE10F0E0
:1030A0000A0EE80403E3EECFE4FFFBD7E652F2B4E6
:1030B00048D89EB04DD89EB252D8A1B257D8F2B2DD
:1030C000F2929EAA03D09E9A7BEC12F0E55200EE9B
:1030D00019F00A0EE80403E3E5CFEDFFFBD700EE9D
:1030E0000FF0100EE80403E3E5CFEDFFFBD716D891
:1030F0001100DACFE4FFE2CFDAFFE9CFE4FFEACF55
:10310000E4FFF6CFE4FFF7CFE4FFF5CFE4FFF3CF22
:10311000E4FFF4CFE4FFFACFE4FF1200E5CFFAFFBB
:10312000E5CFF4FFE5CFF3FFE5CFF5FFE5CFF7FF00
:10313000E5CFF6FFE5CFEAFFE5CFE9FFE5CFDAFF20
:103140001200DEEC16F0F294E0EC16F033EF17F01C
:10315000FAEC16F09E90F7EC16F041EF17F010EC39
:1031600017F09E920CEC17F04FEF17F031EC17F0C0
:0A317000A19229EC17F05DEF17F0B3
:06317A00006A0EAEC6EF74
:1031800018F00D6C0E1EE86A0E22001E09AECEEF7E
:1031900018F0086C091EE86A0922001E3CEC1AF0BF
:1031A00009BEDEEF18F000AE000C086C091EE86ADC
:1031B0000922046C051EE86A0522000C00BED5EF4A
:1031C00018F00188FF0C006A0EAEEEEF18F00C6CE0
:1031D0000D1E0E1EE86A0D220E22001E09AEF8EF2B
:1031E00018F0076C081E091EE86A08220922001E52
:1031F00003EC1AF009BE0BEF19F000AE000C076CDF
:10320000081E091EE86A08220922036C041E051E16
:1032100004220522000C00BEFFEF18F00188FF0C0D
:103220001E0EF66E000EF76E000EF86E000109001D
:10323000F550F46F0900F550F56F03E1F46701D024
:103240003DD00900F550EF6F0900F550F06F09000F
:10325000F550F16F09000900F550E96E0900F550CD
:10326000EA6E090009000900F550F26F0900F550F7
:10327000F36F09000900F6CFF6F0F7CFF7F0F8CFBB
:10328000F8F0EFC0F6FFF0C0F7FFF1C0F8FF000163
:10329000F25302E1F35307E00900F550EE6EF20736
:1032A000F8E2F307F9D7F6C0F6FFF7C0F7FFF8C06A
:0E32B000F8FF0001F407000EF55BBFD7120017
:0232BE00010EFF
:1032C000926E0E0EC16EC26A040EC06EC2801200F3
:1032D000D9CFE6FFE1CFD9FF020EE126DE6ADD6A33
:1032E000C282C2B2FED7C450DE6EDD6ADECF12F0FB
:1032F000DDCF13F0D89012361336D890123613362D
:10330000060EC3CFE7FF070B04E0E742E79EE8069F
:10331000FCE1E7501224106E000E132010C0DEFFF7
:10332000DD6EDECF90F1DDCF91F1DECF10F0DDCF9D
:1033300011F010C0F3FF11C0F4FF020EE15C02E2D5
:0E334000E16AE552E16EE552E7CFD9FF1200D7
:02334E00065027
:103350000B02F3CF02F0F4CF03F00C02F35003267C
:10336000000EF420046E06500D02F3500426000EE9
:10337000F420056E06500E02F350052607500B028E
:10338000F3500326F4500422000E052207500C02CD
:10339000F3500426F450052207500D02F350052681
:1033A00008500B02F3500426F450052208500C027A
:0E33B000F350052609500B02F35005261200BB
:0233BE00056A9E
:1033C000046A036A026A200EE76ED8900636073652
:1033D0000836093602360336043605360B50025CD1
:1033E0000C5003580D5004580E50055809E30B506B
:1033F000025E0C50035A0D50045A0E50055A062A0C
:06340000E72EE4D71200E4
:0A340600056A046A036A180EE76EF7
:10341000D8900736083609360336043605360C5080
:10342000035C0D5004580E50055807E30C50035E22
:103430000D50045A0E50055A072AE72EEAD71200FB
:10344000CA94CA90CA829B0ECB6EBD98BD9ABE6AC2
:10345000BD9CBD9EBD90BD92BD84BD869494CA8422
:103460001200D9CFE6FFE1CFD9FFFE0EDB50BE6ED2
:08347000E552E7CFD9FF12007D
:08347800056A046A100EE76EFC
:10348000D89008360936043605360D50045C0E50C7
:10349000055805E30D50045E0E50055A082AE72E24
:0434A000F0D712004F
:0C34A400800EF36E00EE00F00F0E01D859
:1034B0001200EA6002D0EE6AFCD7F350E960120015
:0434C000EE6AFCD7DD
:0C34C4001EEE00F02EEE00F0F86A019CF5
:1034D00010EC19F003EC00F040EC00F0FBD7120008
:1034E000056A080EE76ED890093605360E50055C61
:0C34F00002E3056E092AE72EF7D7120050
:0434FC0000000000CC
:1035000000000000000000000000000000000000BB
:0C351000000000000100010001000100AB
:04351C0000000000AB
:10352000010000000008050000000000000000008D
:0335300000000098
:0D353300010204081020408000000000008C
:103540000000000102034104050642070809432A5E
:1035500000454401020304020708090303030304AE
:1035600008060805414243FF000000FFFF0A040A65
:0B357000040A040A040004000000002C
:05357B0000000000004B
:103580000000001010101010101010181818181843
:103590001818181C1C1C1C1C1C1C1C1E1E1E1E1E6D
:1035A0001E1E1E1F1F1F1F1F1F1F1F0000000000C9
:1035B000000000000000000000000000000000000B
:1035C00000000000000000000000000000000000FB
:0C35D000000000000000000000000000EF
:0435DC00000000D01B
:1035E000002222220725091000010000000000002F
:0735F00000000000000000D4
:0935F700000000000000000000CB
:1036000000000000000000000000000000000000BA
:0F361000000000000000001020408001020408AC
:020000040030CA
:0100010002FC
:0100020003FA
:010003001EDE
:010005008179
:010006008178
:010008000FE8
:01000900C036
:01000A000FE6
:01000B00E014
:01000C000FE4
:01000D0040B2
:00000001FF
